{
  "address": "0x5c6A2101890195716Ee63aDE4De14A779AE50e0a",
  "abi": [
    {
      "inputs": [
        {
          "internalType": "address",
          "name": "_endpoint",
          "type": "address"
        },
        {
          "internalType": "address",
          "name": "_delegate",
          "type": "address"
        }
      ],
      "stateMutability": "nonpayable",
      "type": "constructor"
    },
    {
      "inputs": [
        {
          "internalType": "address",
          "name": "target",
          "type": "address"
        }
      ],
      "name": "AddressEmptyCode",
      "type": "error"
    },
    {
      "inputs": [
        {
          "internalType": "address",
          "name": "account",
          "type": "address"
        }
      ],
      "name": "AddressInsufficientBalance",
      "type": "error"
    },
    {
      "inputs": [],
      "name": "ExecutorVM_CallFailure",
      "type": "error"
    },
    {
      "inputs": [],
      "name": "FailedInnerCall",
      "type": "error"
    },
    {
      "inputs": [],
      "name": "InvalidDelegate",
      "type": "error"
    },
    {
      "inputs": [],
      "name": "InvalidEndpointCall",
      "type": "error"
    },
    {
      "inputs": [],
      "name": "LzTokenUnavailable",
      "type": "error"
    },
    {
      "inputs": [
        {
          "internalType": "uint32",
          "name": "eid",
          "type": "uint32"
        }
      ],
      "name": "NoPeer",
      "type": "error"
    },
    {
      "inputs": [
        {
          "internalType": "uint256",
          "name": "msgValue",
          "type": "uint256"
        }
      ],
      "name": "NotEnoughNative",
      "type": "error"
    },
    {
      "inputs": [
        {
          "internalType": "address",
          "name": "addr",
          "type": "address"
        }
      ],
      "name": "OnlyEndpoint",
      "type": "error"
    },
    {
      "inputs": [
        {
          "internalType": "uint32",
          "name": "eid",
          "type": "uint32"
        },
        {
          "internalType": "bytes32",
          "name": "sender",
          "type": "bytes32"
        }
      ],
      "name": "OnlyPeer",
      "type": "error"
    },
    {
      "inputs": [
        {
          "internalType": "address",
          "name": "owner",
          "type": "address"
        }
      ],
      "name": "OwnableInvalidOwner",
      "type": "error"
    },
    {
      "inputs": [
        {
          "internalType": "address",
          "name": "account",
          "type": "address"
        }
      ],
      "name": "OwnableUnauthorizedAccount",
      "type": "error"
    },
    {
      "inputs": [
        {
          "internalType": "address",
          "name": "token",
          "type": "address"
        }
      ],
      "name": "SafeERC20FailedOperation",
      "type": "error"
    },
    {
      "anonymous": false,
      "inputs": [
        {
          "indexed": true,
          "internalType": "address",
          "name": "previousOwner",
          "type": "address"
        },
        {
          "indexed": true,
          "internalType": "address",
          "name": "newOwner",
          "type": "address"
        }
      ],
      "name": "OwnershipTransferred",
      "type": "event"
    },
    {
      "anonymous": false,
      "inputs": [
        {
          "indexed": false,
          "internalType": "uint32",
          "name": "eid",
          "type": "uint32"
        },
        {
          "indexed": false,
          "internalType": "bytes32",
          "name": "peer",
          "type": "bytes32"
        }
      ],
      "name": "PeerSet",
      "type": "event"
    },
    {
      "inputs": [
        {
          "components": [
            {
              "internalType": "uint32",
              "name": "srcEid",
              "type": "uint32"
            },
            {
              "internalType": "bytes32",
              "name": "sender",
              "type": "bytes32"
            },
            {
              "internalType": "uint64",
              "name": "nonce",
              "type": "uint64"
            }
          ],
          "internalType": "struct Origin",
          "name": "origin",
          "type": "tuple"
        }
      ],
      "name": "allowInitializePath",
      "outputs": [
        {
          "internalType": "bool",
          "name": "",
          "type": "bool"
        }
      ],
      "stateMutability": "view",
      "type": "function"
    },
    {
      "inputs": [],
      "name": "eid",
      "outputs": [
        {
          "internalType": "uint32",
          "name": "",
          "type": "uint32"
        }
      ],
      "stateMutability": "view",
      "type": "function"
    },
    {
      "inputs": [],
      "name": "endpoint",
      "outputs": [
        {
          "internalType": "contract ILayerZeroEndpointV2",
          "name": "",
          "type": "address"
        }
      ],
      "stateMutability": "view",
      "type": "function"
    },
    {
      "inputs": [
        {
          "internalType": "bytes32[]",
          "name": "heap",
          "type": "bytes32[]"
        },
        {
          "components": [
            {
              "internalType": "address",
              "name": "target",
              "type": "address"
            },
            {
              "internalType": "uint256",
              "name": "value",
              "type": "uint256"
            },
            {
              "internalType": "bytes4",
              "name": "selector",
              "type": "bytes4"
            },
            {
              "components": [
                {
                  "internalType": "bool",
                  "name": "isHeapValue",
                  "type": "bool"
                },
                {
                  "internalType": "bytes32",
                  "name": "value",
                  "type": "bytes32"
                }
              ],
              "internalType": "struct Input[]",
              "name": "inputs",
              "type": "tuple[]"
            },
            {
              "components": [
                {
                  "internalType": "uint256",
                  "name": "heapAddress",
                  "type": "uint256"
                },
                {
                  "internalType": "uint256",
                  "name": "startIndex",
                  "type": "uint256"
                }
              ],
              "internalType": "struct Output[]",
              "name": "outputs",
              "type": "tuple[]"
            }
          ],
          "internalType": "struct Call[]",
          "name": "calls",
          "type": "tuple[]"
        }
      ],
      "name": "execute",
      "outputs": [
        {
          "components": [
            {
              "internalType": "bool",
              "name": "success",
              "type": "bool"
            },
            {
              "internalType": "bytes",
              "name": "returnData",
              "type": "bytes"
            }
          ],
          "internalType": "struct CallResult[]",
          "name": "results",
          "type": "tuple[]"
        }
      ],
      "stateMutability": "payable",
      "type": "function"
    },
    {
      "inputs": [
        {
          "components": [
            {
              "internalType": "uint32",
              "name": "srcEid",
              "type": "uint32"
            },
            {
              "internalType": "bytes32",
              "name": "sender",
              "type": "bytes32"
            },
            {
              "internalType": "uint64",
              "name": "nonce",
              "type": "uint64"
            }
          ],
          "internalType": "struct Origin",
          "name": "",
          "type": "tuple"
        },
        {
          "internalType": "bytes",
          "name": "",
          "type": "bytes"
        },
        {
          "internalType": "address",
          "name": "_sender",
          "type": "address"
        }
      ],
      "name": "isComposeMsgSender",
      "outputs": [
        {
          "internalType": "bool",
          "name": "",
          "type": "bool"
        }
      ],
      "stateMutability": "view",
      "type": "function"
    },
    {
      "inputs": [
        {
          "internalType": "address",
          "name": "_oApp",
          "type": "address"
        },
        {
          "internalType": "bytes32",
          "name": "",
          "type": "bytes32"
        },
        {
          "internalType": "bytes",
          "name": "_payload",
          "type": "bytes"
        },
        {
          "internalType": "address",
          "name": "",
          "type": "address"
        },
        {
          "internalType": "bytes",
          "name": "",
          "type": "bytes"
        }
      ],
      "name": "lzCompose",
      "outputs": [],
      "stateMutability": "payable",
      "type": "function"
    },
    {
      "inputs": [
        {
          "components": [
            {
              "internalType": "uint32",
              "name": "srcEid",
              "type": "uint32"
            },
            {
              "internalType": "bytes32",
              "name": "sender",
              "type": "bytes32"
            },
            {
              "internalType": "uint64",
              "name": "nonce",
              "type": "uint64"
            }
          ],
          "internalType": "struct Origin",
          "name": "_origin",
          "type": "tuple"
        },
        {
          "internalType": "bytes32",
          "name": "_guid",
          "type": "bytes32"
        },
        {
          "internalType": "bytes",
          "name": "_message",
          "type": "bytes"
        },
        {
          "internalType": "address",
          "name": "_executor",
          "type": "address"
        },
        {
          "internalType": "bytes",
          "name": "_extraData",
          "type": "bytes"
        }
      ],
      "name": "lzReceive",
      "outputs": [],
      "stateMutability": "payable",
      "type": "function"
    },
    {
      "inputs": [
        {
          "internalType": "uint32",
          "name": "",
          "type": "uint32"
        },
        {
          "internalType": "bytes32",
          "name": "",
          "type": "bytes32"
        }
      ],
      "name": "nextNonce",
      "outputs": [
        {
          "internalType": "uint64",
          "name": "nonce",
          "type": "uint64"
        }
      ],
      "stateMutability": "view",
      "type": "function"
    },
    {
      "inputs": [],
      "name": "oAppVersion",
      "outputs": [
        {
          "internalType": "uint64",
          "name": "senderVersion",
          "type": "uint64"
        },
        {
          "internalType": "uint64",
          "name": "receiverVersion",
          "type": "uint64"
        }
      ],
      "stateMutability": "pure",
      "type": "function"
    },
    {
      "inputs": [],
      "name": "owner",
      "outputs": [
        {
          "internalType": "address",
          "name": "",
          "type": "address"
        }
      ],
      "stateMutability": "view",
      "type": "function"
    },
    {
      "inputs": [
        {
          "internalType": "uint32",
          "name": "eid",
          "type": "uint32"
        }
      ],
      "name": "peers",
      "outputs": [
        {
          "internalType": "bytes32",
          "name": "peer",
          "type": "bytes32"
        }
      ],
      "stateMutability": "view",
      "type": "function"
    },
    {
      "inputs": [
        {
          "internalType": "uint32",
          "name": "_eid",
          "type": "uint32"
        },
        {
          "components": [
            {
              "internalType": "address",
              "name": "target",
              "type": "address"
            },
            {
              "internalType": "uint256",
              "name": "value",
              "type": "uint256"
            },
            {
              "internalType": "bytes4",
              "name": "selector",
              "type": "bytes4"
            },
            {
              "components": [
                {
                  "internalType": "bool",
                  "name": "isHeapValue",
                  "type": "bool"
                },
                {
                  "internalType": "bytes32",
                  "name": "value",
                  "type": "bytes32"
                }
              ],
              "internalType": "struct Input[]",
              "name": "inputs",
              "type": "tuple[]"
            },
            {
              "components": [
                {
                  "internalType": "uint256",
                  "name": "heapAddress",
                  "type": "uint256"
                },
                {
                  "internalType": "uint256",
                  "name": "startIndex",
                  "type": "uint256"
                }
              ],
              "internalType": "struct Output[]",
              "name": "outputs",
              "type": "tuple[]"
            }
          ],
          "internalType": "struct Call[]",
          "name": "_calls",
          "type": "tuple[]"
        },
        {
          "internalType": "bytes",
          "name": "_options",
          "type": "bytes"
        }
      ],
      "name": "quote",
      "outputs": [
        {
          "internalType": "uint256",
          "name": "nativeFee",
          "type": "uint256"
        },
        {
          "internalType": "uint256",
          "name": "lzTokenFee",
          "type": "uint256"
        }
      ],
      "stateMutability": "view",
      "type": "function"
    },
    {
      "inputs": [],
      "name": "renounceOwnership",
      "outputs": [],
      "stateMutability": "nonpayable",
      "type": "function"
    },
    {
      "inputs": [
        {
          "internalType": "uint32",
          "name": "_dstEid",
          "type": "uint32"
        },
        {
          "components": [
            {
              "internalType": "address",
              "name": "target",
              "type": "address"
            },
            {
              "internalType": "uint256",
              "name": "value",
              "type": "uint256"
            },
            {
              "internalType": "bytes4",
              "name": "selector",
              "type": "bytes4"
            },
            {
              "components": [
                {
                  "internalType": "bool",
                  "name": "isHeapValue",
                  "type": "bool"
                },
                {
                  "internalType": "bytes32",
                  "name": "value",
                  "type": "bytes32"
                }
              ],
              "internalType": "struct Input[]",
              "name": "inputs",
              "type": "tuple[]"
            },
            {
              "components": [
                {
                  "internalType": "uint256",
                  "name": "heapAddress",
                  "type": "uint256"
                },
                {
                  "internalType": "uint256",
                  "name": "startIndex",
                  "type": "uint256"
                }
              ],
              "internalType": "struct Output[]",
              "name": "outputs",
              "type": "tuple[]"
            }
          ],
          "internalType": "struct Call[]",
          "name": "_calls",
          "type": "tuple[]"
        },
        {
          "internalType": "bytes",
          "name": "_options",
          "type": "bytes"
        }
      ],
      "name": "send",
      "outputs": [
        {
          "components": [
            {
              "internalType": "bytes32",
              "name": "guid",
              "type": "bytes32"
            },
            {
              "internalType": "uint64",
              "name": "nonce",
              "type": "uint64"
            },
            {
              "components": [
                {
                  "internalType": "uint256",
                  "name": "nativeFee",
                  "type": "uint256"
                },
                {
                  "internalType": "uint256",
                  "name": "lzTokenFee",
                  "type": "uint256"
                }
              ],
              "internalType": "struct MessagingFee",
              "name": "fee",
              "type": "tuple"
            }
          ],
          "internalType": "struct MessagingReceipt",
          "name": "receipt",
          "type": "tuple"
        }
      ],
      "stateMutability": "payable",
      "type": "function"
    },
    {
      "inputs": [
        {
          "internalType": "address",
          "name": "_delegate",
          "type": "address"
        }
      ],
      "name": "setDelegate",
      "outputs": [],
      "stateMutability": "nonpayable",
      "type": "function"
    },
    {
      "inputs": [
        {
          "internalType": "uint32",
          "name": "_eid",
          "type": "uint32"
        },
        {
          "internalType": "bytes32",
          "name": "_peer",
          "type": "bytes32"
        }
      ],
      "name": "setPeer",
      "outputs": [],
      "stateMutability": "nonpayable",
      "type": "function"
    },
    {
      "inputs": [
        {
          "internalType": "address",
          "name": "newOwner",
          "type": "address"
        }
      ],
      "name": "transferOwnership",
      "outputs": [],
      "stateMutability": "nonpayable",
      "type": "function"
    }
  ],
  "transactionHash": "0x80feada2850af8abb37708872123a96b66e027d25a4cf1e4cc6d01b584478242",
  "args": [
    "0x6EDCE65403992e310A62460808c4b910D972f10f",
    "0x55E026e24700091088657B8e273cb82fA190e2D3"
  ],
  "numDeployments": 1,
  "solcInputHash": "6a06bcb0ff7614e6583344ecc8f2a2ae",
  "bytecode": "0x60c060405234801561001057600080fd5b5060405161209e38038061209e83398101604081905261002f916101db565b81818181806001600160a01b03811661006257604051631e4fbdf760e01b81526000600482015260240160405180910390fd5b61006b8161016f565b506001600160a01b03808316608052811661009957604051632d618d8160e21b815260040160405180910390fd5b60805160405163ca5eb5e160e01b81526001600160a01b0383811660048301529091169063ca5eb5e190602401600060405180830381600087803b1580156100e057600080fd5b505af11580156100f4573d6000803e3d6000fd5b5050505050505050816001600160a01b031663416ecebf6040518163ffffffff1660e01b8152600401602060405180830381865afa15801561013a573d6000803e3d6000fd5b505050506040513d601f19601f8201168201806040525081019061015e919061020e565b63ffffffff1660a0525061023b9050565b600080546001600160a01b038381166001600160a01b0319831681178455604051919092169283917f8be0079c531659141344cd1fd0a4f28419497f9722a3daafe3b4186f6b6457e09190a35050565b80516001600160a01b03811681146101d657600080fd5b919050565b600080604083850312156101ee57600080fd5b6101f7836101bf565b9150610205602084016101bf565b90509250929050565b60006020828403121561022057600080fd5b815163ffffffff8116811461023457600080fd5b9392505050565b60805160a051611e0d6102916000396000610171015260008181610205015281816103ee0152818161062f015281816106d90152818161094201528181610a3001528181610c8b0152610d440152611e0d6000f3fe6080604052600436106100fe5760003560e01c80637d25a05e11610095578063ca5eb5e111610064578063ca5eb5e114610359578063d0a1026014610379578063da4177551461038c578063f2fde38b146103ac578063ff7bd03d146103cc57600080fd5b80637d25a05e1461028957806382413eac146102c15780638da5cb5b14610300578063bb0b6a531461031e57600080fd5b806358dfeee2116100d157806358dfeee2146101a85780635e280f11146101f35780636145357f1461023f578063715018a61461027457600080fd5b806313137d651461010357806317442b70146101185780633400288b1461013f578063416ecebf1461015f575b600080fd5b61011661011136600461122d565b6103ec565b005b34801561012457600080fd5b50604080516001815260026020820152015b60405180910390f35b34801561014b57600080fd5b5061011661015a3660046112e2565b6104ac565b34801561016b57600080fd5b506101937f000000000000000000000000000000000000000000000000000000000000000081565b60405163ffffffff9091168152602001610136565b6101bb6101b636600461130c565b6104c2565b60408051825181526020808401516001600160401b031681830152928201518051928201929092529101516060820152608001610136565b3480156101ff57600080fd5b506102277f000000000000000000000000000000000000000000000000000000000000000081565b6040516001600160a01b039091168152602001610136565b34801561024b57600080fd5b5061025f61025a36600461130c565b61055d565b60408051928352602083019190915201610136565b34801561028057600080fd5b506101166105eb565b34801561029557600080fd5b506102a96102a43660046112e2565b6105ff565b6040516001600160401b039091168152602001610136565b3480156102cd57600080fd5b506102f06102dc3660046113c4565b6001600160a01b0381163014949350505050565b6040519015158152602001610136565b34801561030c57600080fd5b506000546001600160a01b0316610227565b34801561032a57600080fd5b5061034b61033936600461142a565b60016020526000908152604090205481565b604051908152602001610136565b34801561036557600080fd5b50610116610374366004611445565b610608565b610116610387366004611462565b61068e565b61039f61039a3660046117f2565b61075b565b6040516101369190611902565b3480156103b857600080fd5b506101166103c7366004611445565b6107c0565b3480156103d857600080fd5b506102f06103e7366004611980565b6107fe565b7f00000000000000000000000000000000000000000000000000000000000000006001600160a01b0316331461043c576040516391ac5e4f60e01b81523360048201526024015b60405180910390fd5b6020870180359061045690610451908a61142a565b610834565b1461049457610468602088018861142a565b60405163309afaf360e21b815263ffffffff909116600482015260208801356024820152604401610433565b6104a387878787878787610732565b50505050505050565b6104b4610870565b6104be828261089d565b5050565b6104ca611177565b60006104d46108f2565b905060008187876040516020016104ed93929190611a25565b60408051601f198184030181526020601f88018190048102840181019092528683529250610551918a9184919089908990819084018382808284376000920182905250604080518082019091523481526020810191909152925033915061090f9050565b98975050505050505050565b600080600061056a6108f2565b9050600081888860405160200161058393929190611a25565b60408051601f198184030181526020601f890181900481028401810190925287835292506000916105d2918c9185918b908b908190840183828082843760009201829052509250610a1a915050565b8051602090910151909b909a5098505050505050505050565b6105f3610870565b6105fd6000610afb565b565b60005b92915050565b610610610870565b60405163ca5eb5e160e01b81526001600160a01b0382811660048301527f0000000000000000000000000000000000000000000000000000000000000000169063ca5eb5e190602401600060405180830381600087803b15801561067357600080fd5b505af1158015610687573d6000803e3d6000fd5b5050505050565b6001600160a01b03871630146106ce5760405162461bcd60e51b81526020600482015260056024820152640216f4170760dc1b6044820152606401610433565b336001600160a01b037f000000000000000000000000000000000000000000000000000000000000000016146107325760405162461bcd60e51b815260206004820152600960248201526808595b991c1bda5b9d60ba1b6044820152606401610433565b600080610741868801886117f2565b9150915061074f828261075b565b50505050505050505050565b606061076683610b4b565b60005b82518110156107b95761079483828151811061078757610787611b8f565b6020026020010151610b62565b8282815181106107a6576107a6611b8f565b6020908102919091010152600101610769565b5092915050565b6107c8610870565b6001600160a01b0381166107f257604051631e4fbdf760e01b815260006004820152602401610433565b6107fb81610afb565b50565b6000602082018035906001908390610816908661142a565b63ffffffff1681526020810191909152604001600020541492915050565b63ffffffff8116600090815260016020526040812054806106025760405163f6ff4fb760e01b815263ffffffff84166004820152602401610433565b6000546001600160a01b031633146105fd5760405163118cdaa760e01b8152336004820152602401610433565b63ffffffff8216600081815260016020908152604091829020849055815192835282018390527f238399d427b947898edb290f5ff0f9109849b1c3ba196a42e35f00c50a54b98b910160405180910390a15050565b606061090a600080516020611db88339815191525490565b905090565b610917611177565b60006109268460000151610c5f565b602085015190915015610940576109408460200151610c87565b7f00000000000000000000000000000000000000000000000000000000000000006001600160a01b0316632637a450826040518060a001604052808b63ffffffff1681526020016109908c610834565b81526020018a815260200189815260200160008960200151111515815250866040518463ffffffff1660e01b81526004016109cc929190611ba5565b60806040518083038185885af11580156109ea573d6000803e3d6000fd5b50505050506040513d601f19601f82011682018060405250810190610a0f9190611c4f565b979650505050505050565b60408051808201909152600080825260208201527f00000000000000000000000000000000000000000000000000000000000000006001600160a01b031663ddc28c586040518060a001604052808863ffffffff168152602001610a7d89610834565b8152602001878152602001868152602001851515815250306040518363ffffffff1660e01b8152600401610ab2929190611ba5565b6040805180830381865afa158015610ace573d6000803e3d6000fd5b505050506040513d601f19601f82011682018060405250810190610af29190611cc4565b95945050505050565b600080546001600160a01b038381166001600160a01b0319831681178455604051919092169283917f8be0079c531659141344cd1fd0a4f28419497f9722a3daafe3b4186f6b6457e09190a35050565b6107fb600080516020611db8833981519152829055565b6040805180820190915260008152606060208201526000610b868360600151610d69565b90506000836040015182604051602001610ba1929190611ce0565b604051602081830303815290604052905060008085600001516001600160a01b0316866020015184604051610bd69190611d11565b60006040518083038185875af1925050503d8060008114610c13576040519150601f19603f3d011682016040523d82523d6000602084013e610c18565b606091505b509150915081610c3b576040516352cfb9c960e11b815260040160405180910390fd5b8115158552602085018190526080860151610c569082610dd1565b50505050919050565b6000813414610c83576040516304fb820960e51b8152346004820152602401610433565b5090565b60007f00000000000000000000000000000000000000000000000000000000000000006001600160a01b031663e4fe1d946040518163ffffffff1660e01b8152600401602060405180830381865afa158015610ce7573d6000803e3d6000fd5b505050506040513d601f19601f82011682018060405250810190610d0b9190611d2d565b90506001600160a01b038116610d34576040516329b99a9560e11b815260040160405180910390fd5b6104be6001600160a01b038216337f000000000000000000000000000000000000000000000000000000000000000085610e0d565b606060005b8251811015610dcb576000610d9b848381518110610d8e57610d8e611b8f565b6020026020010151610e6d565b90508281604051602001610db0929190611d4a565b60408051601f19818403018152919052925050600101610d6e565b50919050565b60005b8251811015610e0857610e00838281518110610df257610df2611b8f565b602002602001015183610ec9565b600101610dd4565b505050565b604080516001600160a01b0385811660248301528416604482015260648082018490528251808303909101815260849091019091526020810180516001600160e01b03166323b872dd60e01b179052610e67908590610ef2565b50505050565b805160609015610ead576020820151610e8590610f55565b604051602001610e9791815260200190565b6040516020818303038152906040529050919050565b602080830151604051610e97920190815260200190565b919050565b6000610ee2836020015183610f9290919063ffffffff16565b9050610e08836000015182610ff0565b6000610f076001600160a01b03841683611040565b90508051600014158015610f2c575080806020019051810190610f2a9190611d79565b155b15610e0857604051635274afe760e01b81526001600160a01b0384166004820152602401610433565b600080610f6e600080516020611db88339815191525490565b9050808381518110610f8257610f82611b8f565b6020026020010151915050919050565b6000610f9f826020611d96565b83511015610fe75760405162461bcd60e51b8152602060048201526015602482015274746f427974657333325f6f75744f66426f756e647360581b6044820152606401610433565b50016020015190565b6000611008600080516020611db88339815191525490565b90508181848151811061101d5761101d611b8f565b602002602001018181525050610e08600080516020611db8833981519152829055565b606061104e83836000611055565b9392505050565b60608147101561107a5760405163cd78605960e01b8152306004820152602401610433565b600080856001600160a01b031684866040516110969190611d11565b60006040518083038185875af1925050503d80600081146110d3576040519150601f19603f3d011682016040523d82523d6000602084013e6110d8565b606091505b50915091506110e88683836110f2565b9695505050505050565b606082611107576111028261114e565b61104e565b815115801561111e57506001600160a01b0384163b155b1561114757604051639996b31560e01b81526001600160a01b0385166004820152602401610433565b508061104e565b80511561115e5780518082602001fd5b604051630a12f52160e11b815260040160405180910390fd5b60405180606001604052806000801916815260200160006001600160401b031681526020016111b9604051806040016040528060008152602001600081525090565b905290565b600060608284031215610dcb57600080fd5b60008083601f8401126111e257600080fd5b5081356001600160401b038111156111f957600080fd5b60208301915083602082850101111561121157600080fd5b9250929050565b6001600160a01b03811681146107fb57600080fd5b600080600080600080600060e0888a03121561124857600080fd5b61125289896111be565b96506060880135955060808801356001600160401b0381111561127457600080fd5b6112808a828b016111d0565b90965094505060a088013561129481611218565b925060c08801356001600160401b038111156112af57600080fd5b6112bb8a828b016111d0565b989b979a50959850939692959293505050565b803563ffffffff81168114610ec457600080fd5b600080604083850312156112f557600080fd5b6112fe836112ce565b946020939093013593505050565b60008060008060006060868803121561132457600080fd5b61132d866112ce565b945060208601356001600160401b0381111561134857600080fd5b8601601f8101881361135957600080fd5b80356001600160401b0381111561136f57600080fd5b8860208260051b840101111561138457600080fd5b6020919091019450925060408601356001600160401b038111156113a757600080fd5b6113b3888289016111d0565b969995985093965092949392505050565b60008060008060a085870312156113da57600080fd5b6113e486866111be565b935060608501356001600160401b038111156113ff57600080fd5b61140b878288016111d0565b909450925050608085013561141f81611218565b939692955090935050565b60006020828403121561143c57600080fd5b61104e826112ce565b60006020828403121561145757600080fd5b813561104e81611218565b600080600080600080600060a0888a03121561147d57600080fd5b873561148881611218565b96506020880135955060408801356001600160401b038111156114aa57600080fd5b6114b68a828b016111d0565b90965094505060608801356114ca81611218565b925060808801356001600160401b038111156112af57600080fd5b634e487b7160e01b600052604160045260246000fd5b604080519081016001600160401b038111828210171561151d5761151d6114e5565b60405290565b60405160a081016001600160401b038111828210171561151d5761151d6114e5565b604051601f8201601f191681016001600160401b038111828210171561156d5761156d6114e5565b604052919050565b60006001600160401b0382111561158e5761158e6114e5565b5060051b60200190565b80356001600160e01b031981168114610ec457600080fd5b80151581146107fb57600080fd5b600082601f8301126115cf57600080fd5b81356115e26115dd82611575565b611545565b8082825260208201915060208360061b86010192508583111561160457600080fd5b602085015b83811015611647576040818803121561162157600080fd5b6116296114fb565b81358152602080830135818301529084529290920191604001611609565b5095945050505050565b600082601f83011261166257600080fd5b81356116706115dd82611575565b8082825260208201915060208360051b86010192508583111561169257600080fd5b602085015b838110156116475780356001600160401b038111156116b557600080fd5b860160a0818903601f190112156116cb57600080fd5b6116d3611523565b60208201356116e181611218565b8152604082013560208201526116f960608301611598565b604082015260808201356001600160401b0381111561171757600080fd5b82016020810190603f018a1361172c57600080fd5b803561173a6115dd82611575565b8082825260208201915060208360061b85010192508c83111561175c57600080fd5b6020840193505b828410156117ad576040848e03121561177b57600080fd5b6117836114fb565b843561178e816115b0565b8152602085810135818301529083526040909401939190910190611763565b606085015250505060a08201356001600160401b038111156117ce57600080fd5b6117dd8a6020838601016115be565b60808301525084525060209283019201611697565b6000806040838503121561180557600080fd5b82356001600160401b0381111561181b57600080fd5b8301601f8101851361182c57600080fd5b803561183a6115dd82611575565b8082825260208201915060208360051b85010192508783111561185c57600080fd5b6020840193505b8284101561187e578335825260209384019390910190611863565b945050505060208301356001600160401b0381111561189c57600080fd5b6118a885828601611651565b9150509250929050565b60005b838110156118cd5781810151838201526020016118b5565b50506000910152565b600081518084526118ee8160208601602086016118b2565b601f01601f19169290920160200192915050565b6000602082016020835280845180835260408501915060408160051b86010192506020860160005b8281101561197457603f198786030184528151805115158652602081015190506040602087015261195e60408701826118d6565b955050602093840193919091019060010161192a565b50929695505050505050565b60006060828403121561199257600080fd5b61104e83836111be565b6000808335601e198436030181126119b357600080fd5b83016020810192503590506001600160401b038111156119d257600080fd5b8060061b360382131561121157600080fd5b81835260208301925060008160005b84811015611a1b578135865260208083013590870152604095860195909101906001016119f3565b5093949350505050565b6040808252845190820181905260009060208601906060840190835b81811015611a5f578351835260209384019390920191600101611a41565b5050838103602085015280915084815260208101915060208560051b820101866000609e19893603015b88821015611b8057848403601f190186528235818112611aa857600080fd5b8a0160a085018135611ab981611218565b6001600160a01b03168652602082810135908701526001600160e01b0319611ae360408401611598565b166040870152611af6606083018361199c565b60a06060890152918290529060009060c088015b81831015611b3e578335611b1d816115b0565b15158152602084810135908201526040938401936001939093019201611b0a565b611b4b608086018661199c565b9550935088810360808a0152611b628186866119e4565b98505050505050602083019250602086019550600182019150611a89565b50919998505050505050505050565b634e487b7160e01b600052603260045260246000fd5b6040815263ffffffff8351166040820152602083015160608201526000604084015160a06080840152611bdb60e08401826118d6565b90506060850151603f198483030160a0850152611bf882826118d6565b60809690960151151560c08501525050506001600160a01b039190911660209091015290565b600060408284031215611c3057600080fd5b611c386114fb565b825181526020928301519281019290925250919050565b60006080828403128015611c6257600080fd5b50604051606081016001600160401b0381118282101715611c8557611c856114e5565b6040528251815260208301516001600160401b0381168114611ca657600080fd5b6020820152611cb88460408501611c1e565b60408201529392505050565b600060408284031215611cd657600080fd5b61104e8383611c1e565b6001600160e01b0319831681528151600090611d038160048501602087016118b2565b919091016004019392505050565b60008251611d238184602087016118b2565b9190910192915050565b600060208284031215611d3f57600080fd5b815161104e81611218565b60008351611d5c8184602088016118b2565b835190830190611d708183602088016118b2565b01949350505050565b600060208284031215611d8b57600080fd5b815161104e816115b0565b8082018082111561060257634e487b7160e01b600052601160045260246000fdfee5e27f9775faf95e46172feea251eb9f2cc787a80d25d32081f5688f1e10c7a5a2646970667358221220568ae48f9735041249e2cf324681197998dc6c29a890d7ccfb053dc6538dc83c64736f6c634300081a0033",
  "devdoc": {
    "errors": {
      "AddressEmptyCode(address)": [
        {
          "details": "There's no code at `target` (it is not a contract)."
        }
      ],
      "AddressInsufficientBalance(address)": [
        {
          "details": "The ETH balance of the account is not enough to perform the operation."
        }
      ],
      "FailedInnerCall()": [
        {
          "details": "A call to an address target failed. The target may have reverted."
        }
      ],
      "OwnableInvalidOwner(address)": [
        {
          "details": "The owner is not a valid owner account. (eg. `address(0)`)"
        }
      ],
      "OwnableUnauthorizedAccount(address)": [
        {
          "details": "The caller account is not authorized to perform an operation."
        }
      ],
      "SafeERC20FailedOperation(address)": [
        {
          "details": "An operation with an ERC20 token failed."
        }
      ]
    },
    "kind": "dev",
    "methods": {
      "allowInitializePath((uint32,bytes32,uint64))": {
        "details": "This indicates to the endpoint that the OApp has enabled msgs for this particular path to be received.This defaults to assuming if a peer has been set, its initialized. Can be overridden by the OApp if there is other logic to determine this.",
        "params": {
          "origin": "The origin information containing the source endpoint and sender address."
        },
        "returns": {
          "_0": "Whether the path has been initialized."
        }
      },
      "isComposeMsgSender((uint32,bytes32,uint64),bytes,address)": {
        "details": "_origin The origin information containing the source endpoint and sender address.  - srcEid: The source chain endpoint ID.  - sender: The sender address on the src chain.  - nonce: The nonce of the message._message The lzReceive payload.Applications can optionally choose to implement separate composeMsg senders that are NOT the bridging layer.The default sender IS the OAppReceiver implementer.",
        "params": {
          "_sender": "The sender address."
        },
        "returns": {
          "_0": "isSender Is a valid sender."
        }
      },
      "lzReceive((uint32,bytes32,uint64),bytes32,bytes,address,bytes)": {
        "details": "Entry point for receiving messages or packets from the endpoint.Entry point for receiving msg/packet from the LayerZero endpoint.",
        "params": {
          "_executor": "The address of the executor for the received message.",
          "_extraData": "Additional arbitrary data provided by the corresponding executor.",
          "_guid": "The unique identifier for the received LayerZero message.",
          "_message": "The payload of the received message.",
          "_origin": "The origin information containing the source endpoint and sender address.  - srcEid: The source chain endpoint ID.  - sender: The sender address on the src chain.  - nonce: The nonce of the message."
        }
      },
      "nextNonce(uint32,bytes32)": {
        "details": "_srcEid The source endpoint ID._sender The sender address.The path nonce starts from 1. If 0 is returned it means that there is NO nonce ordered enforcement.Is required by the off-chain executor to determine the OApp expects msg execution is ordered.This is also enforced by the OApp.By default this is NOT enabled. ie. nextNonce is hardcoded to return 0.",
        "returns": {
          "nonce": "The next nonce."
        }
      },
      "oAppVersion()": {
        "returns": {
          "receiverVersion": "The version of the OAppReceiver.sol implementation.",
          "senderVersion": "The version of the OAppSender.sol implementation."
        }
      },
      "owner()": {
        "details": "Returns the address of the current owner."
      },
      "renounceOwnership()": {
        "details": "Leaves the contract without owner. It will not be possible to call `onlyOwner` functions. Can only be called by the current owner. NOTE: Renouncing ownership will leave the contract without an owner, thereby disabling any functionality that is only available to the owner."
      },
      "setDelegate(address)": {
        "details": "Only the owner/admin of the OApp can call this function.Provides the ability for a delegate to set configs, on behalf of the OApp, directly on the Endpoint contract.",
        "params": {
          "_delegate": "The address of the delegate to be set."
        }
      },
      "setPeer(uint32,bytes32)": {
        "details": "Only the owner/admin of the OApp can call this function.Indicates that the peer is trusted to send LayerZero messages to this OApp.Set this to bytes32(0) to remove the peer address.Peer is a bytes32 to accommodate non-evm chains.",
        "params": {
          "_eid": "The endpoint ID.",
          "_peer": "The address of the peer to be associated with the corresponding endpoint."
        }
      },
      "transferOwnership(address)": {
        "details": "Transfers ownership of the contract to a new account (`newOwner`). Can only be called by the current owner."
      }
    },
    "version": 1
  },
  "userdoc": {
    "kind": "user",
    "methods": {
      "allowInitializePath((uint32,bytes32,uint64))": {
        "notice": "Checks if the path initialization is allowed based on the provided origin."
      },
      "endpoint()": {
        "notice": "Retrieves the LayerZero endpoint associated with the OApp."
      },
      "isComposeMsgSender((uint32,bytes32,uint64),bytes,address)": {
        "notice": "Indicates whether an address is an approved composeMsg sender to the Endpoint."
      },
      "nextNonce(uint32,bytes32)": {
        "notice": "Retrieves the next nonce for a given source endpoint and sender address."
      },
      "oAppVersion()": {
        "notice": "Retrieves the OApp version information."
      },
      "peers(uint32)": {
        "notice": "Retrieves the peer (OApp) associated with a corresponding endpoint."
      },
      "setDelegate(address)": {
        "notice": "Sets the delegate address for the OApp."
      },
      "setPeer(uint32,bytes32)": {
        "notice": "Sets the peer address (OApp instance) for a corresponding endpoint."
      }
    },
    "version": 1
  },
  "storageLayout": {
    "storage": [
      {
        "astId": 1345,
        "contract": "contracts/Omnicall.sol:Omnicall",
        "label": "_owner",
        "offset": 0,
        "slot": "0",
        "type": "t_address"
      },
      {
        "astId": 64,
        "contract": "contracts/Omnicall.sol:Omnicall",
        "label": "peers",
        "offset": 0,
        "slot": "1",
        "type": "t_mapping(t_uint32,t_bytes32)"
      }
    ],
    "types": {
      "t_address": {
        "encoding": "inplace",
        "label": "address",
        "numberOfBytes": "20"
      },
      "t_bytes32": {
        "encoding": "inplace",
        "label": "bytes32",
        "numberOfBytes": "32"
      },
      "t_mapping(t_uint32,t_bytes32)": {
        "encoding": "mapping",
        "key": "t_uint32",
        "label": "mapping(uint32 => bytes32)",
        "numberOfBytes": "32",
        "value": "t_bytes32"
      },
      "t_uint32": {
        "encoding": "inplace",
        "label": "uint32",
        "numberOfBytes": "4"
      }
    }
  }
}